:100000000C942A000C943F000C943F000C943F0089
:100010000C943F000C943F000C943F000C943F0064
:100020000C943F000C943F000C943F000C943F0054
:100030000C943F000C943F000C943F000C943F0044
:100040000C943F000C943F000C943F000C943F0034
:100050000C943F0011241FBECFE5D8E0DEBFCDBF1A
:1000600010E0A0E6B0E0E6E0F4E002C005900D92FA
:10007000AE36B107D9F70E94E4010C9401020C944A
:100080000000B99AB89AA39AA49AA59AA69AA79A90
:100090000895A498A598A698A7980895A49AA59AB3
:1000A000A69AA79A0895C1980895C19A0895C098EC
:1000B0000895C09A089585E08A95F1F70000AB9AFB
:1000C00085E08A95F1F70000AB9885E08A95F1F715
:1000D0000000089587FF0CC0AF9A86FF0BC0AE9A50
:1000E00085FF0AC0AD9A84FF09C0AC9A0C945B00EE
:1000F000AF98F3CFAE98F4CFAD98F5CFAC98F6CFDC
:10010000CF93C82F0E946A008C2F8295807FCF9159
:100110000C946A0093B333B323B383B390783074F1
:10012000932B2072922B8071892B0895CF93DF93AC
:100130000E9449000E9453000E94590085E08A9560
:10014000F1F70000AB9A85E08A95F1F700000E9474
:100150008A00D82F85E08A95F1F70000AB9885E0FA
:100160008A95F1F70000AB9A85E08A95F1F70000D7
:100170000E948A00C82FC295CF70D07FCD2B85E01A
:100180008A95F1F70000AB9885E08A95F1F70000B9
:10019000C7FDD8CF0E944E008C2FDF91CF910895DC
:1001A000CF93C82F0E9496000E9453000E945700D0
:1001B0008C2FCF910C948000CF93C82F0E94960073
:1001C0000E9455000E9457008C2FCF910C94800004
:1001D0000E9441008FE39CE90197F1F700C0000005
:1001E0008FE39CE90197F1F700C000008FE39CE9E1
:1001F0000197F1F700C000008FE39CE90197F1F748
:1002000000C000008FE39CE90197F1F700C00000F7
:100210000E9453000E94570080E30E946A008FE111
:100220009EE40197F1F700C0000080E30E946A009D
:1002300087E592E00197F1F700C0000080E30E949B
:100240006A0087E592E00197F1F700C0000080E2C4
:100250000E946A0088E20E94D00088E00E94D000DC
:1002600081E00E94D00086E00E94D0008CE00C94D7
:10027000D000CF93DF93EC018991811103C0DF910E
:10028000CF9108950E94DC00F7CFCF93DF93EC016C
:10029000FE018491882321F00E94DC002196F8CF92
:1002A000DF91CF91089562303CF4611103C0805812
:1002B0000C94D000613011F48054FACF80E8F8CF6C
:1002C000FC0101900020E9F73197E81BF90BE031C0
:1002D00038F480E190E08E1B9109959587950895FB
:1002E00080E008956F3F11F40C94600180E0089560
:1002F000EF92FF920F931F93CF938C017B01C42F3A
:10030000FC01108A40E150E060E270E00E94FA01D6
:10031000C7FF04C0C7010E946001C82FF701019008
:100320000020E9F73197EE19FF094E2F4C0F4131AC
:100330000CF040E1D801AC0FB11DC7FDBA9580E0CB
:10034000982F9C0F941734F0CF911F910F91FF902D
:10035000EF9008959701280F311D87FD3A95F90117
:1003600090819D938F5FECCFFF920F931F93CF935C
:10037000DF93CDB7DEB761970FB6F894DEBF0FBE3F
:10038000CDBF8C01F42E41E150E0CE0101960E94D8
:10039000EB01198A4F2DBE016F5F7F4FC8010E948C
:1003A000780161960FB6F894DEBF0FBECDBFDF9126
:1003B000CF911F910F91FF900895FC018EE28587E8
:1003C00086878787108A08950E94E80080E690E07B
:1003D0000E943901FFCFFB01DC014150504048F041
:1003E00005900D920020C9F701C01D924150504068
:1003F000E0F70895DC0101C06D9341505040E0F7F3
:060400000895F894FFCFFF
:0E0406004469676974616C2046727965720002
:00000001FF
